:100000000C942A000C943C000C943C000C943C0092
:100010000C943C000C943C000C943C000C943C0070
:100020000C943C000C943C000C943C000C943C0060
:100030000C943C000C946C000C943C000C943C0020
:100040000C943C000C943C000C943C000C943C0040
:100050000C943C0011241FBECFE5D8E0DEBFCDBF1D
:1000600010E0A0E6B0E001C01D92A436B107E1F7B0
:100070000E9484000C94BA000C9400009B01AC0117
:1000800084E0220F331F441F551F8A95D1F760E08B
:1000900072E18AE790E00E949800215031094109FD
:1000A000510988E98AB986E880BD29B9BB27A52FFF
:1000B000942F832F80BD789408959093630080934C
:1000C000620008955D9BFECF8CB908955F9BFECFC3
:1000D0002CB1FC01208308951F920F920FB60F924E
:1000E00011248F93EF93FF93E0916200F0916300EE
:1000F000309711F08CB18083FF91EF918F910F9029
:100100000FBE0F901F90189560E875E280E090E0B8
:100110000E943E0080E690E00E945D0080916100B8
:10012000811101C0FFCF0E94620010926100F6CFE2
:10013000A1E21A2EAA1BBB1BFD010DC0AA1FBB1FEB
:10014000EE1FFF1FA217B307E407F50720F0A21B5D
:10015000B30BE40BF50B661F771F881F991F1A94CA
:1001600069F760957095809590959B01AC01BD01F4
:08017000CF010895F894FFCFC0
:00000001FF
