:100000000C942A000C943C000C943C000C943C0092
:100010000C943C000C943C000C943C000C943C0070
:100020000C943C000C943C000C943C000C943C0060
:100030000C943C000C94D7000C943C000C943C00B5
:100040000C943C000C943C000C943C000C943C0040
:100050000C943C0011241FBECFE5D8E0DEBFCDBF1D
:1000600010E0A0E6B0E001C01D92A436B107E1F7B0
:100070000E94EF000C9428010C940000882319F0D2
:10008000813031F0089587B3806A87BB83E502C071
:10009000BE9A80E48DB90895882319F0813029F043
:1000A0000895BC9AC498C39A0895BB9AC398C49AF9
:1000B00008958FB9779BFECF0895779BFECF2FB120
:1000C000FC01208308950F931F93CF93DF931F921A
:1000D000CDB7DEB719828C01F80181918F01882399
:1000E00061F0BE016F5F7F4F0E9459008FE097E281
:1000F0000197F1F700C00000EFCF0F90DF91CF9193
:100100001F910F9108959B01AC0184E0220F331FD2
:10011000441F551F8A95D1F760E072E18AE790E0AD
:100120000E940601215031094109510988E98AB923
:1001300086E880BD29B9BB27A52F942F832F80BDCA
:1001400078940895909363008093620008955D9B76
:10015000FECF8CB90895CF93DF93EC01899188236A
:1001600019F00E94A700FACFDF91CF910895EF9286
:10017000FF920F931F93CF93DF938C017B01EC01D0
:10018000CE01801B910B8E159F0524F489910E944E
:10019000A700F6CFDF91CF911F910F91FF90EF90C5
:1001A00008955F9BFECF2CB1FC01208308951F9220
:1001B0000F920FB60F9211248F93EF93FF93E0915C
:1001C0006200F0916300309711F08CB18083FF9151
:1001D000EF918F910F900FBE0F901F90189560E8D0
:1001E00075E280E090E00E94830081E690E00E944A
:1001F000A20081E60E94A70080916100811101C0E8
:10020000FFCF0E94A70010926100F6CFA1E21A2E44
:10021000AA1BBB1BFD010DC0AA1FBB1FEE1FFF1FAA
:10022000A217B307E407F50720F0A21BB30BE40BFA
:10023000F50B661F771F881F991F1A9469F7609541
:100240007095809590959B01AC01BD01CF010895FB
:04025000F894FFCF50
:00000001FF
